:020000040800F2
:1000000000000120CD53000805B5000811B5000817
:1000100019B5000821B5000829B500080000000046
:100020000000000000000000000000003DB50008D6
:1000300031B500080000000049B5000875710008DE
:1000400055B5000861B500086DB5000879B5000820
:1000500085B5000891B50008799F0008D99F000870
:1000600039A0000845A0000851A000089DB500086F
:10007000A9B50008B5B50008C1B50008CDB50008A0
:10008000D9B50008E5B50008F1B50008FDB50008D0
:1000900009B6000815B6000821B600085DA00008E2
:1000A0002DB6000839B6000845B6000851B600085C
:1000B000CD77000859790008D5B6000801B70008C7
:1000C000B1BD000805BE000811BE00081DBE000835
:1000D00029BE000851870008E1C900080DCB0008BF
:1000E000ADA1000835BE000841BE00084DBE0008A5
:1000F00059BE000865BE000871BE00087DBE00083C
:1001000089BE000895BE0008A1BE0008ADBE00086B
:10011000B9BE0008C5BE0008D1BE0008DDBE00089B
:10012000E9BE0008F5BE000801BF000829C00008AC
:1001300040F224130146C2F20003186800F008B828
:1001400040F224130146C2F20003186800F06CBEAE
:100150002DE9F04F01F10B04162C83B0064631D97E
:1001600024F00704E30F8C422CBF194643F0010131
:10017000002930D1304600F0EFFBB4F5FC7F2FD2E0
:100180004FEAD40C40F21825C2F2000505EBCC0270
:100190002F46D368934200F02D825C6803F1080873
:1001A000DA68304624F0030499681B195C68CA6059
:1001B00044F0010491605C6000F0D0FB404603B065
:1001C000BDE8F08F002310248C422CBF194643F069
:1001D00001010029CED00C234FF000083360EDE779
:1001E0005FEA542C04BF4FEAD40C4FEACC0040F035
:1001F000868040F21825C2F2000528182F46C368F1
:10020000984206D10DE0002980F27981DB6898429E
:1002100007D05A6822F00302111B0F29F3DD0CF1FD
:10022000FF3C0CF1010CBD4A93689A4208BF786804
:1002300024D0586820F00300011B0F2900F3C0816F
:100240000029D260926080F29480B0F5007F80F047
:100250007781C0084FF0010ED7F8048007EBC0018A
:1002600080100EFA00F0D960D1F808E040EA0800EA
:100270007860C3F808E0CEF80C308B604FF0010EC8
:100280004FEAAC030EFA03FE86457DD810EA0E0F46
:1002900008D12CF0030C4FEA4E0E0CF1040C10EABE
:1002A0000E0FF8D007EBCC0AE146D046D8F80C0088
:1002B000804507D196E1002B80F2A681C068804579
:1002C00000F09081416821F003010B1B0F2BF2DD40
:1002D0008046C568011944F0010E58F8087F43F0C4
:1002E0000104C0F804E030464C60FD60AF60D160AE
:1002F0009160CA608A60CB5000F030FB5EE7BCF1D1
:10030000040F9EBF4FEA941C0CF1380C4FEACC004E
:100310007FF66FAFBCF1140F9CBF0CF15B0C4FEA82
:10032000CC007FF666AFBCF1540F9EBF4FEA143C81
:100330000CF16E0C4FEACC007FF65BAFBCF5AA7FE8
:100340009EBF4FEAD43C0CF1770C4FEACC007FF60D
:1003500050AF40F254539C4595BF4FEA944C4FF434
:100360007C700CF17C0C4FF07E0C98BF4FEACC00F7
:100370003FE71A1803F108083046536843F00103B9
:10038000536000F0EBFA19E7D7F80880D8F804308A
:1003900023F003094C45C4EB090294BF0023012359
:1003A0000F2AD8BF43F00103002B00F0B98040F6BC
:1003B000C04AD5F80834C2F2000A3046B3F1FF3F14
:1003C000DAF8002002F1100BA3441FBF0BF57E6B7F
:1003D0000BF11F0B2BF47E6B2BF01F0B594600F01B
:1003E0005FFBB0F1FF3F034600F0188108EB090105
:1003F000814200F21081DAF8042081425A44CAF89E
:10040000042000F03E81D5F808E440F21825C2F23D
:100410000005BEF1FF3F17BF8218C5F80804C1EB05
:100420000201CAF8041010F0070517BFC5F108054E
:100430004FF48055431905F5805503EB0B02304608
:1004400001931205120DAD1A294600F029FB019BFC
:10045000B0F1FF3F00F02C81C11A491941F00101B0
:10046000DAF80420B84540F6C04BBB602A44C2F21B
:10047000000B5960CAF8042017D0B9F10F0F40F2F1
:10048000E180A9F10C03D8F8045023F007030520FC
:1004900008EB03010F2B05F0010543EA0505C8F839
:1004A00004504860886000F2FB80DAF82C1040F6B7
:1004B000C043C2F200038A42DAF8301088BFDA6221
:1004C00040F6C0438A42C2F2000340F2A780D7F848
:1004D00008801A63D8F8043023F003039C42C4EB6D
:1004E000030294BF002301230F2AD8BF43F0010366
:1004F000B3B130464FF0000800F030FA5EE69A18CB
:10050000D9689C6803F108085568304645F0010336
:10051000E1608C60536000F021FA4FE62002002079
:1005200008EB040342F0010244F001043046C8F82D
:10053000044008F108085A60BB6000F00FFA3DE67D
:10054000410A04299CBF4FEA901E0EF1380E1DD9B6
:10055000142998BF01F15B0E18D954299CBF4FEAAA
:10056000103E0EF16E0E11D9B1F5AA7F9CBF4FEA75
:10057000D03E0EF1770E09D940F2545E714596BF18
:100580004FEA904E4FF07E0E0EF17C0E07EBCE0838
:10059000D8F80810414503D147E08968884505D05F
:1005A000D1F804E02EF0030E7045F6D3D1F80CE03C
:1005B000C3F80CE099607868CB60CEF808305DE64F
:1005C0001D1941F00107D56044F0010495603046E3
:1005D0005C6003F10808EA60AA606F60695000F08F
:1005E000BDF9EBE509F1010919F0030F2FD008F16E
:1005F00008085BE603F108025B699A4208BF0CF148
:10060000020C3FF410AEC8E580464318C26830467D
:1006100058F8081FCAE5B8453FF4EDAED7F8088092
:10062000D8F8043023F0030358E74FF00109D7F856
:1006300004804FEAAE008E4609FA00F048EA000056
:100640007860B5E7984601225A60002346E7514694
:100650001CF0030F0B460CF1FF3C2CD053F808198B
:100660009942F5D07B684FEA4E0E9E453FF68CAE20
:10067000BEF1000F3FF488AE1EEA030F20D0CC4637
:1006800010E64FEA015E4FEA1E5EBEF1000F7FF4F6
:10069000BAAEBB680BEB090141F00101596004E7F8
:1006A000304608F1080100F0BFFBDBF80420FCE64F
:1006B00001210025D4E67B6823EA0E037B60D1E7A5
:1006C0004FEA4E0E09F10409D6E700BF10F0030F00
:1006D000034670B4C9B210D002B303788B421ED067
:1006E000013A013005E0CAB110F8014B013A8C42E1
:1006F00017D010F0030F0346F5D1032A13D86AB1BF
:10070000187888420DD0013A5C1C04E014F8015BB3
:10071000013A8D4203D02046002AF7D1104670BC22
:1007200070471846FBE741EA012646EA06461846A6
:1007300053F8044B86EA0404A4F1013525EA0404C5
:1007400014F0803F03D1043A1846032AEFD8034639
:10075000D5E700BF032A2DE9F00109D82AB100230B
:10076000CC5CC45401339342FAD1BDE8F001704728
:100770000B468218014603E02478013301F8014B4F
:1007800011F0030F1C46F7D113F003055DD06E4244
:10079000C5F1040CED009B594FEACC0C08E0043481
:1007A000A7593B4607FA0CF748EA070741F8047BCC
:1007B000571A23FA05F8032FF1DC03E014F8013B84
:1007C00001F8013B8A42F9D8CFE753F8404C41F891
:1007D000404C53F83C4C41F83C4C53F8384C41F8F1
:1007E000384C53F8344C41F8344C53F8304C41F801
:1007F000304C53F82C4C41F82C4C53F8284C41F811
:10080000284C53F8244C41F8244C53F8204C41F820
:10081000204C53F81C4C41F81C4C53F8184C41F830
:10082000184C53F8144C41F8144C53F8104C41F840
:10083000104C53F80C4C41F80C4C53F8084C41F850
:10084000084C53F8044C41F8044C561A1D460C460B
:10085000403340313F2EB8DC2B460FE053F8101CDC
:1008600044F8101C53F80C1C44F80C1C53F8081CDA
:1008700044F8081C53F8041C44F8041C161B1D46BD
:1008800010330F2E214604F11004E7DC2B4602E062
:10089000246841F8044B551A1C46032D03F1040348
:1008A000F6DC8FE7032AC9B270B408D82AB1034630
:1008B000121803F8011B9342FBD170BC70478218D9
:1008C000044601E004F8011B14F0030FFAD14FF0C5
:1008D000013303FB01F31FE044F8403C44F83C3C87
:1008E00044F8383C44F8343C44F8303C44F82C3C60
:1008F00044F8283C44F8243C44F8203C44F81C3C90
:1009000044F8183C44F8143C44F8103C44F80C3CBF
:1009100044F8083C44F8043C161B254640343F2E5E
:10092000DADC2C4607E044F8103C44F80C3C44F870
:10093000083C44F8043C161B254610340F2EF2DC0C
:1009400001E045F8043B541B032CFADC01E005F8F8
:10095000011B9542FBD3B0E7704700BF704700BF53
:1009600070B540F22414C2F2000406462568AB6B51
:100970001BB100221E615A6170BD1820FFF7D8FB21
:1009800023684AF6CD3141F23422A86343F20E3097
:100990009B6B18804EF26D6059804DF6EC619A8029
:1009A0000522D8800B20198100215A8100229881CC
:1009B0000120C3E904011E615A6170BD70B540F2A7
:1009C0002414C2F200042568AE6BDEB130694FF228
:1009D0002D44756947F62D71C5F65104C4F695414D
:1009E0000122002304FB00F401FB0544A0FB0101EC
:1009F0001218214443EB0103C6E9042323F000410C
:100A0000084670BD1820FFF793FB246812A3D3E9B2
:100A100000234FF22D41C5F65101A86343F20E3079
:100A2000A66B41F234254AF6CD3430804EF26D602B
:100A300074804DF6EC64B5800525F0800B20348180
:100A4000012475810025B0810846C6E90445C6E940
:100A5000042370BDAFF300802E7F954C2DF45158C8
:100A60000246404240EA020221F0004141EAD272CD
:100A7000C2F1FE4202F57002504240EA0202D01773
:100A80000130704702464042104321F0004141EAE4
:100A9000D070C0F1FE4000F57000C00F704700BF7D
:100AA00038B541F68844C2F20004054608460023E2
:100AB000236012F0B7FEB0F1FF3F00D038BD2368CD
:100AC000002BFBD02B6038BD80EA010212F0030F2F
:100AD0003AD110F0030220F0030021F0030150F896
:100AE00004CB08BF51F8043B0DD082F003024FEA5B
:100AF000C2026FF07F4323FA02F251F8043B4CEA42
:100B0000020C43EA020300BFACF101329C4501BF75
:100B100022EA0C0212F0803F50F804CB51F8043B5B
:100B2000F2D04FEA0C604FEA1C2C012828BFB0EB32
:100B3000036F08BF1B0AF4D003F0FF034FEA1060F5
:100B4000A0EB0300704700BF10F0030F0AD010F8AD
:100B5000012B11F8013B012A28BF9A42F4D0A2EBE5
:100B6000030070474DF8045D4DF8044D4FF001024D
:100B700042EA022242EA024201F0030C21F00301A0
:100B800050F8044B51F8045BBCF1020F26D04BD84F
:100B900024F07F4CBCEB152FA4EB020323EA0403E3
:100BA0000DD113EAC21308BF51F8045B0AD18CEAD5
:100BB000040CBCEB056F0CD150F8044BE8E74FEA8E
:100BC00015255CE033F07F4352D10D784FEA146C69
:100BD00055E04FEA146C05F0FF0550E04FEA044C75
:100BE000A4EB02034FEA1C4C23EA0403BCEB154FB1
:100BF00017D113EAC21308BF51F8045B07D18CEA7E
:100C0000040CBCEB054F08D150F8044BE6E71B047D
:100C10002ED10D884FEA144C31E04FEA05454FEADA
:100C2000144C4FEA15452AE004F0FF0CBCEB156F9D
:100C3000A4EB020323EA04030DD113EAC21308BF95
:100C400051F8045B0AD18CEA040CBCEB052F0AD1E5
:100C500050F8044BE8E74FEA156510E014F0FF0F79
:100C600006D051F8045B4FEA142C25F07F4506E0CE
:100C70004FF000005DF8044B5DF8045B70470CF02A
:100C8000FF0205F0FF00012828BF904204BF4FEA91
:100C90001C2C2D0AF3D0A2EB00005DF8044B5DF88C
:100CA000045B704720F0030110F00300C0F1000066
:100CB00051F8043B00F1040C4FEACC0C6FF0000239
:100CC0001CBF22FA0CF213434FF0010C4CEA0C2C1F
:100CD0004CEA0C4CA3EB0C0222EA030212EACC12FF
:100CE00004BF51F8043B0430F4D013F0FF0F1FBFD2
:100CF000013013F47F4F013013F47F0F18BF013020
:100D0000704700BFF0B5141E9BB0054620DB4FF4C2
:100D100002720091ADF80C201A4604916946209B9E
:100D200008BF26464FF0FF3718BF661EADF80E709D
:100D30000296059600F044F9B0F1FF3F05DB14B1CF
:100D4000009B00221A701BB0F0BD8B232B60F6E7CE
:100D50008B234FF0FF302B60F5E700BFF0B540F27A
:100D6000241483B0C2F2000407460E4615460093D1
:100D70002068394632462B46FFF7C4FF03B0F0BD6A
:100D8000F8B540F21824C2F200040F460546FFF7FA
:100D9000E3FDA3685E6826F0030606F57E630F3365
:100DA000DF1B3F0B013F3F03B7F5805F07DB0021EF
:100DB0002846FFF775FEA3689B19984204D0284681
:100DC000FFF7CCFD0020F8BD79422846FFF768FE0A
:100DD000B0F1FF3F10D040F6C443A168C2F2000357
:100DE000F61B284646F001061A684E60D71B1F60A6
:100DF000FFF7B4FD0120F8BD00212846FFF750FEA3
:100E0000A368C21A0F2ADADD40F2206440F6C4411A
:100E1000C2F20004C2F2000142F001025A602368EB
:100E2000C01A0860CBE700BF2DE9F0410D4604462B
:100E3000002958D0FFF790FDA5F1080240F21820D4
:100E40005668C2F2000026F00103D0F808C0D1189D
:100E50008C454F6827F0030765D016F001064F60F8
:100E600031D00026CD196D6815F0010F06D1DB19C0
:100E7000002E4BD08D68C968E9608D6043F0010198
:100E8000D3505160D6B9B3F5007F2ED3590A042947
:100E90006BD89E093836F5004519A968A94203D1D7
:100EA00069E089688D4204D0486820F003008342DD
:100EB000F7D3CB68D3609160CA609A602046BDE8E2
:100EC000F041FFF74BBD55F8085C00F1080C521BD0
:100ED0005B199568654546D0D2F80CC0C5F80CC0C2
:100EE000CCF80850BEE7BDE8F081DB080125466874
:100EF00000EBC3019B1015FA03F3D1608D6846EA3D
:100F0000030343609560EA608A60D7E78D682B4FE2
:100F1000BD42B0D1EA6043F00101AA60D56095609E
:100F20005160D350CAE716F0010F3B4407D155F882
:100F3000081C521A5B189568D168E9608D6040F210
:100F4000246143F00105C2F20001556082600A6825
:100F50009342B3D340F6C0432046C2F2000319685F
:100F6000FFF70EFFAAE701267CE714290CD801F150
:100F70005B06F50090E701254768B6100B46B540C3
:100F800047EA0505456095E7542903D81E0B6E36E0
:100F9000F50081E7B1F5AA7F03D8DE0B7736F500BF
:100FA0007AE740F25455A94203D89E0C7C36F500EE
:100FB00072E74FF47C757E266EE700BF20020020AA
:100FC0002DE9F04FC5B0144612930C91119001F029
:100FD00063FB00681990FFF765FE1C900C988389ED
:100FE00013F0800F03D00369002B01F084810DF111
:100FF0007C0A002356460DF1F7010E9309941A93CB
:101000001B9317931D930F930791CDF8E4A03B9387
:101010003A93099A1378B3F1250218BF0122002BE5
:101020000CBF002302F00103002B00F0BD80099BE0
:101030005A1C174601323B78191E18BF0121252B77
:101040000CBF002301F00103002BF2D1099CB7EB88
:10105000040810D03A9C099801343B9D072CC6F82F
:101060000480306045443A943B9500F38180083613
:101070000F9941440F913B78002B00F081807C1C3C
:10108000002200230D928DF80F31202509942B2189
:101090007B784FF0FF37089222460132A3F12000FF
:1010A000582800F21D83DFE810F02E031B031B03FA
:1010B00037031B031B031B031B031B031B03C80377
:1010C00081001B035D0085001B039F00A500A50098
:1010D000A500A500A500A500A500A500A5001B036F
:1010E0001B031B031B031B031B031B031B031B0310
:1010F0001B03B70042021B0342021B031B031B031B
:101100001B0380021B031B0386021B031B031B0321
:101110001B031B03A4021B031B03B3021B031B03C0
:101120001B031B031B031B031B031B031B031B03CF
:1011300055033D034202420242024F033D031B039B
:101140001B030C031B039B0369037F03DE021B03CA
:10115000E4021B03AC031B031B03D3030D9B129080
:101160005B420D93089C44F004040894137894E7C0
:10117000119839AA0C9901F0E7FA40B9564677E779
:101180003B9B23B1119839AA0C9901F0DDFA0C9917
:101190000F9A8B8913F0400F18BF4FF0FF320F9258
:1011A0000F9845B0BDE8F08F099F64E78DF80F11E7
:1011B000137872E712F8013B2A2B01F00B82A3F19E
:1011C0003000092801F2C1811446002714F8013BC0
:1011D00007EB870700EB4707A3F1300009282246F9
:1011E000F4D947EAE77759E7089B43F0800308936F
:1011F000137852E714460020A3F1300814F8013B9D
:1012000000EB8000A3F1300C2246BCF1090F08EB83
:101210004000F1D90D9041E70992089A169342F0E7
:1012200010020892089B13F0200F00F08282129C9B
:10123000E31D23F0070303F108001290D3E90045F2
:10124000002C75F10002C0F2CE8554EA05034FF080
:1012500001030CBF00220122002FA2BF089921F038
:1012600080010891002F18BF42F00102002A00F00F
:10127000AD83012B00F0FF84022B00F0DF840DF121
:10128000BC0B0BF12703EA084FEAD40848EA45787B
:1012900004F00704114604F130020D46444654EAB6
:1012A00005009C461A7003F1FF33ECD10899CDF884
:1012B0004CC011F0010F40F088850BF1280BCCEBEE
:1012C0000B0210929DF80F210020109C1597BC4234
:1012D000B8BF3C4618900A9412B10A9801300A909F
:1012E000089911F0020B02D00A9B02330A93089C62
:1012F00014F08404149440F0CD820D980A99471A92
:10130000002F40F3C782102F41F379803B9D44F2B8
:1013100030783A9CC0F6010829464FF01009224661
:101320000C9D4446DDF8448002E0103F102F1BDD89
:1013300001323460C6F8049010310836072A3A9218
:1013400006F108033B91F0DD4046294639AA56468E
:1013500001F0FAF90AF1080300287FF418AF103FF2
:101360003B99102F3A9AE3DCA0460D46144601340F
:10137000C6F80080072C77603D443A943B9500F313
:101380007E829DF80F211E466AB13A9C43AB03331F
:10139000336001340123072C73601D443A943B955C
:1013A00000F3E9830836BBF1000F0CD03A9C43AB45
:1013B0003360022301347360072C1D443A943B953B
:1013C00000F3CE830836149A802A00F01083159912
:1013D00010980F1A002F40F35B83102F40F3EC8519
:1013E0003A9C2A46DFF8988A4FF0100B23460C9D52
:1013F0004446DDF8448002E0103F102F1BDD01332E
:101400003460C6F804B010320836072B3A9306F160
:1014100008093B92F0DD4046294639AA0AF108093D
:1014200001F092F9564600287FF4B1AE103F3B9A86
:10143000102F3A9BE3DCA04615461C460134C6F843
:101440000080072C77603D443A943B9500F37D8300
:10145000089A12F4807F40F04E823A9C109B01342F
:101460001398072C1D44C9F80430C9F800003B95B7
:101470003A9400F3358209F10809089C14F0040F2E
:1014800046D00D980A99461A002E41DD102E41F3E0
:101490000B803A9C44F23078C0F6010810272346AE
:1014A000DDF830B04446DDF8448002E0103E102EF6
:1014B00019DD01331035072BC9F80040C9F8047055
:1014C00009F108093A933B95F0DD4046594639AA9F
:1014D000D14601F039F900287FF459AE103E3B9D0A
:1014E000102E3A9BE5DCA0461C460134C9F800806A
:1014F000072CC9F8046035443A943B9508DD1198EF
:1015000039AA0C9901F020F900287FF440AE3B9DE8
:101510000F9A0A9C0D9B9C42ACBF1219D2180F92D5
:10152000002D40F00383002056463A9071E508995B
:101530001D46099211F0080F169300F08784129A45
:10154000D31D23F0070303F10804129418681A90BE
:101550005B681B931A981B9901F0AEF8012840F0C4
:1015600050841A98002200231B9902F0FDFF0028E6
:1015700040F02E879DF80F21032044F2E07344F2DF
:10158000DC710A901698C0F60101C0F60103002430
:101590004728D8BF0B4608991393032321F08001F5
:1015A000159408911093189496E6089C44F008044A
:1015B0000894137871E50899099241F01001089197
:1015C000089A169312F0200300F0DF80129BDA1DB8
:1015D000002322F0070202F108041294D2E9004528
:1015E00054EA05000CBF0022012200208DF80F01F3
:1015F00032E6089C099244F0100408940898169367
:1016000010F0200F00F0048112990123CA1DE0E7B9
:10161000099244F27071089AC0F60101169312F013
:10162000200F179100F02081129CE31D23F0070387
:1016300003F108001290D3E9004554EA0502089B23
:101640000CBF00220122134200F069831698302358
:10165000089901228DF80C31022341F002018DF826
:101660000D010891C1E7089840F020000890137818
:1016700013E509920021129A16938DF80F11141D8B
:1016800013681393002B00F0FD86002FC0F2A7868D
:10169000139800213A46FFF719F8002800F04A870E
:1016A000139BC01A1090B84240F3F584002027EA3B
:1016B000E77115900A919DF80F21129410971890D8
:1016C0000AE613786C2B0BBF089B089C43F02003A1
:1016D00044F010040ABF0893089412F8013FDCE4B8
:1016E00009921693002B3FF44BAD002201218DF897
:1016F000BC302FAC00230A9110918DF80F31159258
:1017000018921394ECE59DF80F31002B40F09B8369
:101710008DF80F511378C0E4089840F0010008904C
:101720001378BAE41693089B099213F0200F7FF404
:101730007EAD089911F0100F00F0A483129A14687E
:1017400004321292E5177BE5089840F040000890BB
:101750001378A2E416930121129B00200992002223
:101760001C1D0A911B68129410912FA98DF80F016E
:101770001592189213918DF8BC30B1E50992089A30
:10178000169312F020037FF421AF089911F0100294
:1017900000F09283129C22680434002512941446AF
:1017A000003A18BF012220E7129B7821089C0025EF
:1017B000099244F28C701A6844F0020404330894CD
:1017C000129314463023003A8DF80C3118BF0122D1
:1017D000C0F601008DF80D1117900223169104E751
:1017E0000899099211F0200F00F05983129A0F9C6A
:1017F000129811682246E31704301290C1E90023C1
:1018000007E40898099210F0200F16937FF4FCAEBD
:10181000089911F0100F40F09182089810F0400FD5
:1018200000F08C821299012300250A88043112915C
:101830001446003A18BF0122D7E6129B129C1B687F
:10184000201D002B0D93FFF689AC1378129024E431
:10185000099244F28C70089AC0F60100169312F0B7
:10186000200F17907FF4E0AE089911F0100F00F0F0
:10187000FA82129A0025146804321292DDE6119859
:1018800039AA0C9900F060FF00287FF480AC9DF825
:101890000F2156463B9D77E5089A12F0010F40F064
:1018A000FD803A9C0135139A01230134C9F80430B4
:1018B000072CC9F800203B953A9400F3338509F1D1
:1018C000080B0BF108091D9B0134072C1D44CBF8B4
:1018D00004303EABCBF800303B953A947FF7CDAD6A
:1018E000119839AA0C9900F02FFF00287FF44FAC13
:1018F000D1463B9DC1E51699652940F3CB801A98E6
:10190000002200231B9902F025FE002800F03E81F2
:101910003A9C44F2C473C0F60103C9F800300134A4
:101920000123072CC9F804301D443A943B95D8BFD5
:1019300009F1080900F34783429B0E9A934204DBA6
:10194000089B13F0010F3FF498AD3A9C1C980134AA
:101950001999072C0544C9F80400D8BF09F10803F8
:10196000C9F800103B953A9400F3BD830E9A561EB9
:10197000002E40F31E83102E40F301863A9C102760
:10198000DFF8FC842246DDF830B04446DDF84480C0
:1019900003E0103E102E40F3C48101321C605F60F2
:1019A00010350833072A3A9203F108093B95F0DD18
:1019B0004046594639AA0AF1080900F0C5FE5346C7
:1019C00000287FF4E4AB3B9D3A9AE2E7002B40F01D
:1019D000B780089C14F0010F00F02B810120302308
:1019E0000DF1E30110908DF8E33013916AE40D9B43
:1019F0000A9C1F1B002F7FF7EAAC102F40F388854D
:101A00003A9C3346DFF878844FF010092246DDF81F
:101A100030B04446DDF8448002E0103F102F1BDD5B
:101A200001321C60C3F8049010350833072A3A923B
:101A300003F108063B95F0DD4046594639AA0AF104
:101A4000080600F081FE534600287FF4A0AB103F4B
:101A50003B9D102F3A9AE3DCA04614460134C3F8AC
:101A60000080072C5F603D443A943B957FF7AFAC14
:101A7000119839AA0C9900F067FE00287FF487AB13
:101A80001599564610983B9D0F1A002F3FF7A5ACAD
:101A9000B146DDE40E9901297FF7FEAE3A9C01358F
:101AA000139B0134C9F800300123072CC9F8043016
:101AB000D8BF09F108093B953A94D8BF09F1080647
:101AC00000F3418101341C991998072C0D44D8BFAB
:101AD00006F1080BC9F80410C9F800003A943B95C8
:101AE00000F33F811A98002200231B9902F032FD77
:101AF000002840F0CE800E9B013413985A1E72606D
:101B0000431C072C336015443A943B957FF7D9AEBC
:101B1000119839AA0C9900F017FE00287FF437AB12
:101B20000AF10809D3463B9D3A9CCCE6119839AAA4
:101B30000C9900F009FE00283FF4F5ACFFF727BB35
:101B4000109239AA1392FFF7BDBB119839AA0C99CC
:101B500000F0FAFD00287FF41AABD1463B9D77E4F4
:101B6000119839AA0C9900F0EFFD00287FF40FAB13
:101B70003B9D564627E4119839AA0C9900F0E4FDE4
:101B800000287FF404AB3B9D56460CE4429E002E99
:101B900040F324820E9E189C1398A642A8BF2646A6
:101BA0000E99002E00EB010B0EDD3A9CAD19C9F821
:101BB00000000134C9F80460072C3B953A94D8BF63
:101BC00009F1080900F32584189A26EAE676961B9F
:101BD000002E40F30284102E40F3F6843A9C2946EE
:101BE000DFF89C82102722460C9D4446DDF8448095
:101BF00003E0103E102E40F3718101321031072AAC
:101C0000C9F80040C9F8047009F108093A9209F1CD
:101C100008033B91EDDD4046294639AAD14600F044
:101C200093FD0AF1080300287FF4B1AA3B993A9A80
:101C3000DFE7109339AB1393FFF744BB0DF1BC0BF7
:101C400017990BF1270004F00F02230943EA0573EB
:101C50004FEA151C8A5C1C460346654601381A701B
:101C600054EA0502EFD10BF1280B1393C3EB0B03DE
:101C70001093FFF727BB0A2C75F100017FD2303497
:101C800001220DF1E30310928DF8E3401393FFF767
:101C900019BB0E994F1E002FDCBF06F10809B34691
:101CA0007FF711AE102FD8BFDFF8D4812CDDDFF81D
:101CB000D08123462A464FF0100944460C9DDDF89A
:101CC000448002E0103F102F1BDD01333460C6F862
:101CD000049010320836072B3A9306F1080B3B921A
:101CE000F0DD4046294639AA0AF1080B00F02CFD28
:101CF000564600287FF44BAA103F3B9A102F3A9B80
:101D0000E3DCA04615461C460134C6F80080072CCB
:101D100077603D443A943B957FF7D3ADF8E60223D4
:101D200063E4A04614460134C3F80080072C5E60CB
:101D300035443A943B957FF7A0ABD1E5129B129CBA
:101D40001A68012328E5119839AA0C9900F0FCFCC7
:101D500000287FF41CAA3B9D0AF108063A9CD14654
:101D6000B0E6119839AA0C9900F0EEFC00287FF437
:101D70000EAA3B9D0AF1080B3A9C5646B2E60DF1BD
:101D8000BC0BB1460BF12708204629460A22002346
:101D900002F09AFF464620462946002308F1FF3804
:101DA00002F130040A22347002F08EFF04460D4620
:101DB00054EA0500E8D113960BF1280B13994E460F
:101DC000C1EB0B011091FFF77DBA302A00F0478379
:101DD00013930BF1280B1398C3EB0B0430231094CF
:101DE0000370FFF76FBA644265EB45052D2354EA93
:101DF00005008DF80F310CBF002201220123FFF7EF
:101E00002BBA1A981B9900F057FC002840F07681F5
:101E1000159044F2E87344F2E4721698C0F6010299
:101E2000C0F601034728D8BF13461393159B03241C
:101E300008990A9421F080019DF80F2108911094CF
:101E40001893FFF749BA1378FFF727B91299CB1DFA
:101E500023F0070303F1080212921C681A945B68CE
:101E60001B93FFF777BB089B13F0400F00F027810F
:101E700012980025048804301290FFF7DEBB00BFE3
:101E800040470108089B13F0400F00F011811298A1
:101E9000B0F9004004301290E517FFF7D1B9089966
:101EA00011F0100F00F01281129A0F9C1368043287
:101EB00012921C60FFF7ADB8089810F0400300F0D4
:101EC0000F82129B0025129C198804341346129429
:101ED0000A1E0C4618BF0122FFF787BBA0460D461D
:101EE00014460134C9F80080072CC9F80460354451
:101EF0003A943B9500F3BB82429A0E9CA2424ADB85
:101F0000089810F0010F46D1139C189821180E9CC8
:101F1000C1EB0B07A21ABA42B8BF1746002F0ADD61
:101F20003A9CED19196001345F60072C3B953A9497
:101F300000F38782083327EAE776961B002E38DD08
:101F4000102E40F31C833A9C1027DFF8C8862246E7
:101F5000DDF830B04446DDF8448003E0103E102E3A
:101F60007FF7DFAE01321C605F6010350833072A4F
:101F70003A9203F108093B95F0DD4046594639AAEB
:101F80000AF1080900F0E0FB534600287FF4FFA89F
:101F90003B9D3A9AE2E73A9C1C9901341998072C28
:101FA0000D44596018603B953A9400F33E82083323
:101FB000AAE79946FFF761BA06F108093A9CDFF8EB
:101FC0005486FFF73BBA119839AA0C9900F0BCFB74
:101FD00000287FF4DCA83B9DD146ADE43A9C44F256
:101FE000C473C0F60103C9F8003001340123072C83
:101FF000C9F804301D443A943B95D8BF09F108094B
:1020000000F39F8136B90E9B23B9089C14F0010F91
:102010003FF433AA3A9C1C9801341999072C0544C3
:10202000C9F80400C9F80010D8BF09F108093B95A8
:102030003A9400F3BE817642002E40F3AB81102E1D
:10204000D8BFDFF8D08540F38D81DFF8C8852346FF
:102050001027DDF830B04446DDF8448003E0103E40
:10206000102E40F37D8101331035072BC9F8004055
:10207000C9F8047009F108093A933B95EFDD404631
:10208000594639AAD14600F05FFB00287FF47FA8AB
:102090003B9D3A9BE3E7109B00221294002415928B
:1020A00023EAE3739DF80F210A931894FFF714B9FC
:1020B00012990C6804311291E517FFF7C1B8129913
:1020C00000250C6804311291FFF7B7BA089810F098
:1020D000400F00F01F8112990F9A0B680431129182
:1020E0001A80FEF796BF119839AA0C9900F02CFBC4
:1020F00000287FF44CA83B9D534637E4B7F1FF3FDF
:1021000000F06481169CA4F1670EDEF1000343EB3E
:102110000E03472C08BF43F0010313B1002F08BF83
:1021200001271B9B1699002B0898A1F16604B9BFE3
:1021300003F100494FF02D0BDDF86C904FF0000BD0
:10214000D4F1000C4CEB040C40F48070462908BF1D
:102150004CF0010C0890BCF1000F40F0B781A1F1E8
:102160006500434243EB0003452908BF43F00103E8
:10217000002B00F0EF8107F1010802231A9A42A90F
:10218000CDF82C9000930A92DDE90A231198029170
:1021900041A9CDF818C0039140A9CDF8048004915D
:1021A0000FF0E2FFDDF818C013901698B0F1670346
:1021B00018BF012347280CBF002303F001032BB9EC
:1021C000089911F0010F08BF409B16D0139A02EB3B
:1021D0000804BCF1000F05D01378302B00F0DF812C
:1021E000429BE4181A9800220023494602F0B2F9F3
:1021F000002800F0818123464094169C1398A4F196
:1022000067014A42C0EB030342EB01020E93472CE5
:1022100014BF134642F00103002B00F05A81429B89
:1022200013F1030F109302DB9F4280F2788116991D
:1022300002391691013B169C002B42938DF8F84011
:10224000C0F2A4812B228DF8F920092B40F385815F
:1022500046F267640DF1F600C6F2666484FB032162
:10226000DA170546C2EBA10202EB8201A3EB4101A2
:1022700013463031092A00F80119EFDC30336A1EA9
:1022800005F8013C0DF1F7039A4228BF0DF1FA0160
:1022900009D20DF1FA0312F8011B03F8011B1946CC
:1022A000079C9442F7D83EAB0E98CB1A0E9918189B
:1022B0001D930129109040F37F81109B00241894F6
:1022C00001331093BBF1000F40F0F580109B9DF897
:1022D0000F2123EAE373CDF854B00A93FEF7FCBF55
:1022E000129800250268043012901446003A18BF74
:1022F0000122FFF77AB940211198FDF729FF0C99C7
:1023000008600861002800F07A810C98402343613E
:10231000FEF76DBE129C0F98236804341294186067
:10232000FEF777BE119839AA0C9900F00DFA002833
:102330007EF42DAF3B9D0DF184093A9CD346FFF707
:10234000C2BA119839AA0C9900F0FEF900287EF45F
:102350001EAF429ED1463B9D002E7FF45BAE52E6FF
:10236000A0461C460134C9F80080072CC9F8046057
:1023700035443A943B95D8BF09F108090ADD119814
:1023800039AA0C9900F0E0F900287EF400AF3B9DDB
:10239000D1463A9C01340E9B139A072C1D44C9F870
:1023A0000430C9F800203A943B957FF764A8FFF702
:1023B00097BA119839AA0C9900F0C6F900287EF452
:1023C000E6AE429ED1463B9D3A9C34E60627A8E6FF
:1023D0002D228DF80F21FFF7CFB84B468CE51398CF
:1023E00000211591FEF75EFC159B1294189320EACC
:1023F000E07210900A929DF80F21FEF76DBF44F233
:10240000307806F108033B9DC0F601083A9CFEF7C0
:10241000AEBF119839AA0C9900F096F900287EF405
:10242000B6AE3B9DD146FFF7CFBB119839AA0C99A8
:1024300000F08AF900287EF4AAAE429A53463B9DEA
:1024400062E5119839AA0C9900F07EF900287EF413
:102450009EAE429A53460E983B9D821A6BE5139BA3
:102460000BF1280BC3EB0B031093FEF72BBF119856
:1024700039AA0C9900F068F900287EF488AE53461A
:102480003B9D39E5062F28BF062744F2A07027EAB6
:10249000E771C0F601001A4610970A91129415933D
:1024A00018931390FEF718BF44F230783A9CC0F6A8
:1024B0000108FFF71AB8109C2D2200208DF80F217B
:1024C00024EAE47415900A94FEF707BFB846032384
:1024D00054E6169A662A60D1429B002B109340F373
:1024E00086801FB9089810F0010F02D05A1CD2192B
:1024F000109218931695E5E6409B9C427FF67DAEC0
:10250000302203F8012BA3424093FAD3234674E60A
:1025100033463A9C0836DFF8FC80FFF79FBA0E9AE4
:10252000934222DB089C14F0010F34D0581C67251D
:102530001090DEE727EAE77215900A9212949DF850
:102540000F2110971890FEF7C7BE002747EAE777DC
:10255000FEF7A4BDB846022310E6303330223FA96F
:102560008DF8FA208DF8FB309DE6002B0E99D4BF34
:10257000C3F102020122521867251092B9E703F154
:1025800008093A9CDFF88C80FFF7CDBB2D225B4217
:102590008DF8F92059E66725ABE7429B4AE61A9881
:1025A00000220023494601F0D5FF00287FF418AE31
:1025B000C8F10103429313E6089A12F0010308BF21
:1025C00018933FF47FAE78E609F108033A9CDFF8F0
:1025D000448086E4129807680430002FBEBF4FF095
:1025E000FF3713781290BFF630A9FEF756BD1FB91A
:1025F000089911F0010F0AD00237109779E7119C62
:102600004FF0FF320C230F922360FEF7C9BD012269
:1026100010926EE74047010810B514463AB144F2F3
:10262000EC711046C0F60101FEF74EFA20B944F2F3
:10263000D870C0F6010010BD44F2D8712046C0F633
:102640000101FEF741FA20B944F2D870C0F601004A
:1026500010BD44F280712046C0F60101FEF734FA45
:1026600044F2D873C0F6010300280CBF18460020BE
:1026700010BD00BF40F22860C2F20000704700BFEA
:1026800040F22863C2F20003186A7047004870479E
:102690004C06002000207047004870476C06002060
:1026A00040F224130A46C2F2000301461868B3E759
:1026B000004870476C06002050EA010310B43CD07B
:1026C000D0F1010238BF0022B1F1004F14BF002346
:1026D00002F00103002B30D14FF6FF73A1F58010FB
:1026E000C7F6DF7301F1FE44984204F570048CBF15
:1026F000002001209C428CBF034640F00103002BC8
:1027000020D1B1F5801F01F100402CBF002301232F
:10271000B0F5801F38BF43F001038BB911F5801F5E
:10272000C7F6F07314BF00200120994214BF014680
:1027300040F0010102EA010000E0022010BC7047F5
:102740000320FBE70420F9E72DE9F04F83B0914621
:102750000D46019090681768002877D04FF0000A66
:1027600008688B685446002C4CD09C421E46984604
:102770003CBF2646A04635D3AB8913F4906F31D0C9
:102780006A6904F1010E296902EB420B461A0EEB4D
:1027900006000BEBDB7B4FEA6B0B83455A463CBFD5
:1027A00083465A4613F4806F31D001981146FDF7E5
:1027B000CFFC8046002834D029693246FDF7CAFF95
:1027C000AB8923F4906343F08003AB8108EB0600F0
:1027D000C6EB0B03C5F810802646A0462860C5F856
:1027E00014B0AB604246514600F0A0FDD9F8082075
:1027F000AB682868141B9B1BAB6040442860C9F879
:102800000840ECB1D7F800A07C680837ABE7019826
:1028100000F0DCFD80460028D8D101982969FEF738
:1028200003FB019A0C234FF0FF3013600023AA89A9
:1028300042F04002AA81C9F80830C9F8043002E029
:102840002046C9F8044003B0BDE8F08F5060FAE7B5
:102850002DE9F04FABB08946834606938B8913F080
:10286000800F03D00B69002B00F02385174600234F
:102870000CAE089305932696289327933B78B3F1E3
:10288000250218BF0122002B0CBF002302F0010318
:10289000002B00F060837A1C144601322378191E45
:1028A00018BF0121252B0CBF002301F00103002BD1
:1028B000F2D1E51B0ED0279B289A01333760072BF6
:1028C00075602A442793289200F3BC830836059943
:1028D000491905912378002B00F03F830022002343
:1028E0000492671C8DF8A7304FF0FF38637892464A
:1028F0004FF0200C2B240137A3F12002582A00F2BC
:102900004E82DFE812F05A024C024C02FB014C02EC
:102910004C024C024C024C024C02FE0014024C02CF
:102920000A0118024C021002FF01FF01FF01FF0122
:10293000FF01FF01FF01FF01FF014C024C024C02AD
:102940004C024C024C024C024C024C024C02C7009E
:102950004C024C024C024C024C024C024C024C0207
:102960004C024C02BD004C024C024C024C024C0288
:1029700059004C024C026D014C024C024C024C02BC
:102980004C024C024C024C024C024C029201C90017
:102990004C024C024C026901C9004C024C025F011E
:1029A0004C024C01BF00340130014C020E014C02BC
:1029B0005B004C024C0235024AF0100A1AF0200F5C
:1029C00000F0BF83069BDA1D012322F0070202F10B
:1029D00008050695D2E9004554EA05000CBF00221F
:1029E000012200218DF8A710B8F1000FA8BF2AF02E
:1029F000800AB8F1000F18BF42F00102002A70D01F
:102A0000012B00F04883022B00F06F831CAAB44610
:102A100002F1270302920397EA08E70847EA45779D
:102A200004F00704114604F130020D463C461E46F0
:102A30001A70013B54EA0500EED11AF0010F099615
:102A4000039F664600F0B883302A00F0658309933F
:102A50000299099A01F128039B1A039330231370FA
:102A6000CDF81C80039807999DF8A7308842B8BF1D
:102A700008460290002B00F0E88001300290E4E06C
:102A80004AF0100A1AF0200300F06683069BDA1D54
:102A900000239AE74AF0100A1AF0200F00F043834F
:102AA0000698C31D23F0070303F108010691D3E93B
:102AB0000045002C75F10000C0F2B88354EA05010E
:102AC0004FF001030CBF00220122B8F1000FA8BF94
:102AD0002AF0800AB8F1000F18BF42F00102002A64
:102AE0008ED1002B40F0AA821AF0010F00F0F9827B
:102AF000012130230DF1970203918DF8973009924F
:102B0000AEE70698069900680A1D0028049080F236
:102B10004583049B06925B4204934AF0040A3B7887
:102B2000E9E6069B00258DF8A750181D06901B6846
:102B30000993002B00F0DB83B8F1000FC0F288830B
:102B4000099800214246FDF7C1FD002800F0E1830D
:102B5000099D401B0390404540F38C830025CDF830
:102B60000C8007957EE74AF0200A3B78C3E6069B77
:102B700044F28C710025C0F601014AF0020A1A687D
:102B800004330693302314468DF8A4307823003A9A
:102B90008DF8A53018BF01220891022321E71AF011
:102BA000200F40F019831AF0100F40F058831AF0EC
:102BB000400F00F05483069D05982B680435069558
:102BC00018805BE63B786C2B0ABF4AF0200A4AF07B
:102BD000100A17F8013F8EE64AF0400A3B788AE671
:102BE0001AF0200F44F27072C0F60102089200F051
:102BF000C880069DEA1D22F0070202F10800069037
:102C0000D2E9004554EA05000CBF002201221AEA6D
:102C1000020F00F0B4828DF8A5304AF0020A30238A
:102C200001228DF8A4300223DBE6069B01201CAABA
:102C30000025191D02901B680691039009928DF8DA
:102C4000A7508DF87030002107911AF002020A9205
:102C500002D0029B023302931AF084050B9540F0D8
:102C6000B58004980299441A002C40F3AF80102CD0
:102C700040F32E8344F25075289A279BC0F6010535
:102C80004FF0100802E0103C102C1CDD01333560C1
:102C9000C6F8048010320836072B279306F1080C7B
:102CA0002892F0DD26AA584649460CAEFFF74CFDA7
:102CB0000CAA02F1080C002840F05681103C289A1A
:102CC000102C279BE2DC01333560072B7460224413
:102CD00027932892DCBF0CF1080166467ADD58463E
:102CE000494626AAFFF730FD002840F03D810CAB95
:102CF000289A03F108010CAE279B6BE04AF0010A09
:102D00003B78F8E539460022A3F1300511F8013B84
:102D100002EB8202A3F130000F46092805EB4202C4
:102D2000F2D90492E8E54AF0800A3B78E3E58DF8B1
:102D3000A7403B78DFE517F8013B2A2B00F0218202
:102D4000A3F13002092A88BF4FF000080DD8394698
:102D50004FF0000811F8013B08EB880802EB480827
:102D6000A3F13002092A0F46F4D948EAE878C3E50E
:102D70001AF0200F44F28C71C0F6010108917FF423
:102D800038AF1AF0100F40F033821AF0400F00F005
:102D90008682069A002514880432069232E7002BB8
:102DA00000F0DB80012000211CAA02908DF8703019
:102DB0008DF8A7100390099245E79DF8A730002BE6
:102DC00040F027828DF8A7C03B7894E5289A06F159
:102DD0000801279B9DF8A70068B101330DF1A700FA
:102DE00030600120072B706002442793289200F383
:102DF00032810E4608310A9860B1013329A830604B
:102E00000220072B706002442793289200F334813C
:102E10000E4608310B9D802D00F0B3800798039D6E
:102E2000441B002C3EDD102C40F32182914D4FF0CD
:102E3000100802E0103C102C1BDD01333560C6F891
:102E4000048010320836072B279306F1080C2892CD
:102E5000F0DD4946584626AA0CAEFFF775FC0CA9D2
:102E600001F1080C00287FD1103C289A102C279BD8
:102E7000E3DC01333560072B7460224427932892EA
:102E8000DCBF0CF1080166460CDD5846494626AA0F
:102E9000FFF75AFC002867D10CAB289A03F1080110
:102EA000279B0CAE01330398099D072B02447060E9
:102EB00035602793289200F3AE801AF0040F30D0CB
:102EC000049B029D5C1B002C2BDD102C40F309821F
:102ED00044F25075279BC0F60105102602E0103C15
:102EE000102C15DD01330D604E6010320831072BB8
:102EF00027932892F3DD4946584626AAFFF724FC7B
:102F00000CA9002830D1103C289A102C279BE9DC12
:102F100001330D60072B4C6022442793289200F365
:102F200041810598029B04998B42ACBFC0184018A0
:102F30000590002A79D1002527953B780CAEB3F196
:102F4000250218BF0122002B0CBF002302F0010351
:102F5000002B7FF4A0AC3C46BCE4289B23B1584630
:102F6000494626AAFFF7F0FBB9F80C30059813F094
:102F7000400F18BF4FF0FF30059005982BB0BDE80B
:102F8000F08F0498029D441B002CD8BF06F1080165
:102F90007FF744AF102C40F3B981364D4FF0100845
:102FA00002E0103C102C1BDD01333560C6F80480B4
:102FB00010320836072B279306F1080C2892F0DD13
:102FC0004946584626AA0CAEFFF7BEFB0CA901F1F4
:102FD000080C0028C8D1103C289A102C279BE3DC51
:102FE00001333560072B7460224427932892DCBF9D
:102FF0000CF1080166467FF711AF5846494626AAEC
:10300000FFF7A2FB0028AFD10CAB289A03F108010F
:103010000CAE279B02E75846494626AAFFF794FBC9
:103020000028A1D1289A0CA947E75846494626AA64
:10303000FFF78AFB00283FF47EAF95E726AB0392AB
:1030400009930DE55846494626AAFFF77DFB00285F
:103050008AD10CAE3BE45846494626AAFFF774FBDA
:10306000002881D10CAD289A05F10801279B2E4636
:10307000C1E600BF604701085846494626AAFFF747
:1030800063FB00287FF470AF0CAB289A03F10801B2
:103090000CAE279BBEE60A2C75F10003C0F09380AE
:1030A0001CA9039701F1270302911F4607962046AA
:1030B00029460A22002301F007FE3E462046294603
:1030C0000023013F02F130040A22347001F0FCFDBC
:1030D00004460D4654EA0502E9D10996039F079E6E
:1030E0001AE026AD03930995BAE41CA9DDF820C0C7
:1030F00001F12700029104F00F02230943EA05734E
:1031000029091CF802201C4603460D4601381A7096
:1031100054EA0502EFD10993029D099805F12803AD
:103120001B1A03939CE41AF0100F75D11AF0400F8C
:1031300000F0A480069BB3F9004004330693E51722
:10314000B7E41AF0100F7FD11AF0400F00F0AD80F5
:10315000069B1A88012309E01AF010014ED11AF0DB
:10316000400300F09180069B1A880B46069D14468A
:10317000043506950025003A18BF012231E40223E8
:103180002FE4069D2A1DD5F80080B8F1000FBEBFC0
:103190004FF0FF383B780692FFF6ADAB3B780692D6
:1031A000FFF7A9BB5846494626AAFFF7CDFA0028E3
:1031B0007FF4DAAE289AB4E60299099A01F128035D
:1031C0009B1A03934CE4303401250DF197000395CD
:1031D0008DF89740099043E4069B059D0698196871
:1031E0002A46EB1704300690C1E90023FFF746BBDF
:1031F000069900250C680431069103E506990A68D2
:10320000043114460025003A069118BF0122FFF749
:10321000E8BB3B78FFF76FBB069A1468043206924E
:10322000E517002C75F10000BFF648AC644265EB71
:1032300045052D2354EA05028DF8A7300CBF002266
:1032400001220123FFF7D0BB069901230A68D7E7C3
:10325000099800210791FDF725FD039002E40699E6
:10326000059A0B68043106911A60FFF707BB2E4DD3
:103270008C46FEE500230793FFF7F4BB069D2C6800
:1032800004350695E51714E40698026804301446E0
:103290000025003A069018BF0122FFF7A2BB069D49
:1032A0002C68043506950025ACE4069801230268D5
:1032B000ECE740210192FCF74BFF019AC9F80000AE
:1032C000C9F8100050B34023C9F81430FFF7CEBA44
:1032D00044F2507506F1080C289AC0F60105279BA8
:1032E000F1E444F25075279BC0F6010510E6B8F1F1
:1032F000060F34BF4146062144F2A07221EAE17371
:10330000C0F601020391029309929CE4064D8C469B
:1033100066E6CDF80C800790FFF7A4BB01380C23BC
:103320000590CBF8003028E6604701088842F0B4E9
:1033300005460E460DD98B1898420AD23AB1194665
:10334000831811F8014D013A03F8014DF9D1F0BC91
:1033500070470F2A31D941EA000313F0030F2ED131
:103360000C46034615462668103D1E6066685E6082
:10337000A6689E60E6681034DE6010330F2DF2D828
:10338000103A22F00F0602F00F021036032A00EB6B
:1033900006050E4411D937462C46134657F8041B30
:1033A000043B032B44F8041BF8D8043A22F003032F
:1033B00002F003020433ED18F618002AC7D00023E8
:1033C000F45CEC5401339342FAD1C0E72DE9F04F9D
:1033D0000D4683B007469046002900F0558108F15C
:1033E0000B04A1F1080AFDF7B7FA162CDAF804303D
:1033F00000F29780102200201446444538BF40F068
:103400000100002840F0468123F0030B9345A4BF40
:103410000AF108085E466EDA40F218290AEB0B0141
:10342000C2F20009D9F808E08E4500F038814E68F4
:1034300026F0010C8C44DCF804C01CF0010F18BF0E
:10344000014673D013F0010F40F0928055F8083C0C
:10345000C3EB0A0CDCF8043023F00303002900F06E
:10346000D180714500F04F815B44C618B24200F331
:10347000CA80CB68E0468968ABF10402242ACB609D
:103480009960DCF80C3058F8081FCB60996000F2A6
:103490009681132A414621D92B460CF1100153F88D
:1034A000040BCCF8080068681D1D1B2ACCF80C0022
:1034B00014D958682B1D0CF11801CCF8100068685D
:1034C0000835242ACCF8140008D15B680CF12001DF
:1034D000CCF818306B680835CCF81C302A460B46FF
:1034E000E24652F8040B43F8040B686848605268DF
:1034F0005A60DCF80430301B0F2824D80AEB06028F
:1035000003F0010343EA0606CAF80460536843F077
:10351000010353603846FDF721FA404603B0BDE889
:10352000F08F24F007042246E00F66E726F0030040
:1035300000EB0B06B24285DCCA680AF1080889680C
:10354000CA609160D7E70AEB040103F001030A188F
:1035500043EA040440F00100CAF8044048603846D9
:103560005368083143F001035360FDF75DFCD1E778
:1035700041463846FCF7ECFD80460028CAD0DAF810
:103580000430A0F1080223F0010151448A4200F006
:103590000E81ABF10402242A00F2B180132A2946DD
:1035A00003461DD92C4654F8043B211D40F8043B2A
:1035B000031D6E681B2AC8F8046011D9D4F804E012
:1035C0000E1D1C1DC0F804E048680831586008331F
:1035D000242A05D1726862604A6808315A6008334B
:1035E00008461A4650F8044B42F8044B49685960A3
:1035F0004368536038462946FDF716FC3846FDF708
:10360000ADF98AE75B449A42B2DCE046DCF80C1084
:10361000ABF1040258F8080F242AC16088605FD813
:10362000132A404621D929460CF1100051F8046BA9
:10363000CCF808606E680D1D1B2ACCF80C6014D9FC
:103640004E68291D0CF11800CCF810606E68083522
:10365000242ACCF8146008D14A680CF12000CCF878
:1036600018206A680835CCF81C2029461E460246F8
:10367000E24651F8043B42F8043B6B6843604B68F8
:103680005360DCF8043036E7114603B0BDE8F04F74
:10369000FCF75EBD0C234FF000083B603DE7DEF811
:1036A000040004F1100C20F0030000EB0B01614555
:1036B000B8BF7146FFF6C6AE0AEB04030A1B42F020
:1036C0000102C9F808305A603846DAF80420A846E2
:1036D00002F001031C43CAF80440FDF73FF91CE760
:1036E000404629460193CDF800C0FFF71FFEDDF8E4
:1036F00000C0019BE2461E46DCF80430FBE629468A
:10370000FFF714FE76E75B4404F11001C6188E4201
:10371000FFF679AFE046DCF80C30ABF1040258F864
:10372000081F242ACB60996055D8132A414621D915
:103730002B460CF1100153F8040BCCF80800686814
:103740001D1D1B2ACCF80C0014D958682B1D0CF138
:103750001801CCF8100068680835242ACCF8140049
:1037600008D15B680CF12001CCF818306B68083583
:10377000CCF81C302A460B4652F8040B43F8040BD5
:103780006868486052685A600CEB0403321B42F0D0
:103790000102C9F808305A603846DCF8042002F00B
:1037A00001031C43CCF80440FDF7D8F8B5E650F807
:1037B000046C0AF1080826F003065E449BE64046C6
:1037C0002946CDF800C0FFF7B1FDDDF800C0E246A4
:1037D000DCF804308FE640462946CDF800C0FFF7FC
:1037E000A5FDDDF800C0CFE74A1E08BF7047C0F056
:1037F0002481884240F21681114200F01781B0FA0C
:1038000080F3B1FA81F2A2EB0303C3F11F0304A218
:1038100002EB03134FF000029F4600BFAFF300809E
:10382000B0EBC17F00BF42EB020228BFA0EBC1702A
:10383000B0EB817F00BF42EB020228BFA0EB81709A
:10384000B0EB417F00BF42EB020228BFA0EB41700A
:10385000B0EB017F00BF42EB020228BFA0EB01707A
:10386000B0EBC16F00BF42EB020228BFA0EBC1600A
:10387000B0EB816F00BF42EB020228BFA0EB81607A
:10388000B0EB416F00BF42EB020228BFA0EB4160EA
:10389000B0EB016F00BF42EB020228BFA0EB01605A
:1038A000B0EBC15F00BF42EB020228BFA0EBC150EA
:1038B000B0EB815F00BF42EB020228BFA0EB81505A
:1038C000B0EB415F00BF42EB020228BFA0EB4150CA
:1038D000B0EB015F00BF42EB020228BFA0EB01503A
:1038E000B0EBC14F00BF42EB020228BFA0EBC140CA
:1038F000B0EB814F00BF42EB020228BFA0EB81403A
:10390000B0EB414F00BF42EB020228BFA0EB4140A9
:10391000B0EB014F00BF42EB020228BFA0EB014019
:10392000B0EBC13F00BF42EB020228BFA0EBC130A9
:10393000B0EB813F00BF42EB020228BFA0EB813019
:10394000B0EB413F00BF42EB020228BFA0EB413089
:10395000B0EB013F00BF42EB020228BFA0EB0130F9
:10396000B0EBC12F00BF42EB020228BFA0EBC12089
:10397000B0EB812F00BF42EB020228BFA0EB8120F9
:10398000B0EB412F00BF42EB020228BFA0EB412069
:10399000B0EB012F00BF42EB020228BFA0EB0120D9
:1039A000B0EBC11F00BF42EB020228BFA0EBC11069
:1039B000B0EB811F00BF42EB020228BFA0EB8110D9
:1039C000B0EB411F00BF42EB020228BFA0EB411049
:1039D000B0EB011F00BF42EB020228BFA0EB0110B9
:1039E000B0EBC10F00BF42EB020228BFA0EBC10049
:1039F000B0EB810F00BF42EB020228BFA0EB8100B9
:103A0000B0EB410F00BF42EB020228BFA0EB410028
:103A1000B0EB010F00BF42EB020228BFA0EB010098
:103A2000104670470CBF012000207047B1FA81F2A8
:103A3000C2F11F0220FA02F0704708B14FF0FF30C8
:103A400000F066B90029F8D02DE90340FFF7CCFE5D
:103A5000BDE8064002FB00F3A1EB0301704700BF85
:103A6000002900F03E8180EA010C48BF49424A1E0D
:103A700000F01F81030048BF43428B4240F21E8189
:103A8000114200F02381B3FA83F2B1FA81F0A0EB86
:103A90000202C2F11F0204A000EB02124FF000006C
:103AA000974600BFAFF30080B3EBC17F00BF40EB90
:103AB000000028BFA3EBC173B3EB817F00BF40EBD5
:103AC000000028BFA3EB8173B3EB417F00BF40EB45
:103AD000000028BFA3EB4173B3EB017F00BF40EBB5
:103AE000000028BFA3EB0173B3EBC16F00BF40EB35
:103AF000000028BFA3EBC163B3EB816F00BF40EBB5
:103B0000000028BFA3EB8163B3EB416F00BF40EB24
:103B1000000028BFA3EB4163B3EB016F00BF40EB94
:103B2000000028BFA3EB0163B3EBC15F00BF40EB14
:103B3000000028BFA3EBC153B3EB815F00BF40EB94
:103B4000000028BFA3EB8153B3EB415F00BF40EB04
:103B5000000028BFA3EB4153B3EB015F00BF40EB74
:103B6000000028BFA3EB0153B3EBC14F00BF40EBF4
:103B7000000028BFA3EBC143B3EB814F00BF40EB74
:103B8000000028BFA3EB8143B3EB414F00BF40EBE4
:103B9000000028BFA3EB4143B3EB014F00BF40EB54
:103BA000000028BFA3EB0143B3EBC13F00BF40EBD4
:103BB000000028BFA3EBC133B3EB813F00BF40EB54
:103BC000000028BFA3EB8133B3EB413F00BF40EBC4
:103BD000000028BFA3EB4133B3EB013F00BF40EB34
:103BE000000028BFA3EB0133B3EBC12F00BF40EBB4
:103BF000000028BFA3EBC123B3EB812F00BF40EB34
:103C0000000028BFA3EB8123B3EB412F00BF40EBA3
:103C1000000028BFA3EB4123B3EB012F00BF40EB13
:103C2000000028BFA3EB0123B3EBC11F00BF40EB93
:103C3000000028BFA3EBC113B3EB811F00BF40EB13
:103C4000000028BFA3EB8113B3EB411F00BF40EB83
:103C5000000028BFA3EB4113B3EB011F00BF40EBF3
:103C6000000028BFA3EB0113B3EBC10F00BF40EB73
:103C7000000028BFA3EBC103B3EB810F00BF40EBF3
:103C8000000028BFA3EB8103B3EB410F00BF40EB63
:103C9000000028BFA3EB4103B3EB010F00BF40EBD3
:103CA000000028BFA3EB0103BCF1000F48BF404256
:103CB00070479CEA000F48BF4042704738BF002061
:103CC00004BF4FEAEC7040F001007047B1FA81F296
:103CD000C2F11F02BCF1000F23FA02F048BF4042BC
:103CE00070470028C8BF6FF00040B8BF4FF00040D9
:103CF00000F00EB80029F4D02DE90340FFF7B3FE21
:103D0000BDE8064002FB00F3A1EB0301704700BFD2
:103D1000704700BF81F0004102E000BF83F0004324
:103D200030B54FEA41044FEA430594EA050F08BF56
:103D300090EA020F1FBF54EA000C55EA020C7FEA1A
:103D4000645C7FEA655C00F0E2804FEA5454D4EB97
:103D50005555B8BF6D420CDD2C4480EA020281EA61
:103D6000030382EA000083EA010180EA020281EA99
:103D70000303362D88BF30BD11F0004F4FEA0131EB
:103D80004FF4801C4CEA113102D0404261EB4101FA
:103D900013F0004F4FEA03334CEA133302D0524280
:103DA00063EB430394EA050F00F0A780A4F101043C
:103DB000D5F1200E0DDB02FA0EFC22FA05F2801876
:103DC00041F1000103FA0EF2801843FA05F359415C
:103DD0000EE0A5F120050EF1200E012A03FA0EFCDB
:103DE00028BF4CF0020C43FA05F3C01851EBE37105
:103DF00001F0004507D54FF0000EDCF1000C7EEB22
:103E000000006EEB0101B1F5801F1BD3B1F5001F5F
:103E10000CD349085FEA30004FEA3C0C04F101047E
:103E20004FEA445212F5800F80F09A80BCF1004FA7
:103E300008BF5FEA500C50F1000041EB045141EA29
:103E4000050130BD5FEA4C0C404141EB010111F42A
:103E5000801FA4F10104E9D191F0000F04BF0146D5
:103E60000020B1FA81F308BF2033A3F10B03B3F1B3
:103E700020020CDA0C3208DD02F1140CC2F10C0243
:103E800001FA0CF021FA02F10CE002F11402D8BFA1
:103E9000C2F1200C01FA02F120FA0CFCDCBF41EA6D
:103EA0000C019040E41AA2BF01EB0451294330BD3C
:103EB0006FEA04041F3C1CDA0C340EDC04F1140419
:103EC000C4F1200220FA04F001FA02F340EA0300F0
:103ED00021FA04F345EA030130BDC4F10C04C4F136
:103EE000200220FA02F001FA04F340EA0300294616
:103EF00030BD21FA04F0294630BD94F0000F83F460
:103F0000801306BF81F480110134013D4EE77FEA42
:103F1000645C18BF7FEA655C29D094EA050F08BF8E
:103F200090EA020F05D054EA000C04BF194610466F
:103F300030BD91EA030F1EBF0021002030BD5FEAB3
:103F4000545C05D14000494128BF41F0004130BDDB
:103F500014F580043CBF01F5801130BD01F000452F
:103F600045F0FE4141F470014FF0000030BD7FEAA2
:103F7000645C1ABF194610467FEA655C1CBF0B469D
:103F8000024650EA013406BF52EA033591EA030FB4
:103F900041F4002130BD00BF90F0000F04BF0021AC
:103FA000704730B54FF4806404F132044FF00005DF
:103FB0004FF0000150E700BF90F0000F04BF002158
:103FC000704730B54FF4806404F1320410F00045BE
:103FD00048BF40424FF000013EE700BF42004FEAB9
:103FE000E2014FEA31014FEA02701FBF12F07F4336
:103FF00093F07F4F81F06051704792F0000F14BF33
:1040000093F07F4F704730B54FF4607401F0004576
:1040100021F0004120E700BF50EA010208BF7047CD
:1040200030B54FF000050AE050EA010208BF7047C2
:1040300030B511F0004502D5404261EB41014FF42B
:10404000806404F132045FEA915C3FF4DCAE4FF02F
:1040500003025FEADC0C18BF03325FEADC0C18BF16
:10406000033202EBDC02C2F1200300FA03FC20FA67
:1040700002F001FA03FE40EA0E0021FA02F11444B4
:10408000C1E600BF70B54FF0FF0C4CF4E06C1CEAC9
:1040900011541DBF1CEA135594EA0C0F95EA0C0F3E
:1040A00000F0DEF82C4481EA030621EA4C5123EAB1
:1040B0004C5350EA013518BF52EA033541F48011E0
:1040C00043F4801338D0A0FB02CE4FF00005E1FB93
:1040D00002E506F00042E0FB03E54FF00006E1FBDD
:1040E00003569CF0000F18BF4EF0010EA4F1FF0420
:1040F000B6F5007F64F5407404D25FEA4E0E6D4160
:1041000046EB060642EAC62141EA55514FEAC52070
:1041100040EA5E504FEACE2EB4F1FD0C88BFBCF5EC
:10412000E06F1ED8BEF1004F08BF5FEA500E50F19D
:10413000000041EB045170BD06F0004646EA010163
:1041400040EA020081EA0301B4EB5C04C2BFD4EB95
:104150000C0541EA045170BD41F480114FF0000E8E
:10416000013C00F3AB8014F1360FDEBF002001F0FC
:10417000004170BDC4F10004203C35DA0C341BDC76
:1041800004F11404C4F1200500FA05F320FA04F048
:1041900001FA05F240EA020001F0004221F000417C
:1041A00010EBD37021FA04F642EB06015EEA430EEF
:1041B00008BF20EAD37070BDC4F10C04C4F120051F
:1041C00000FA04F320FA05F001FA04F240EA0200D2
:1041D00001F0004110EBD37041F100015EEA430EA3
:1041E00008BF20EAD37070BDC4F1200500FA05F2C3
:1041F0004EEA020E20FA04F301FA05F243EA020342
:1042000021FA04F001F0004121FA04F220EA020050
:1042100000EBD3705EEA430E08BF20EAD37070BD96
:1042200094F0000F0FD101F00046400041EB010176
:1042300011F4801F08BF013CF7D041EA060195F058
:10424000000F18BF704703F00046520043EB030312
:1042500013F4801F08BF013DF7D043EA06037047FF
:1042600094EA0C0F0CEA135518BF95EA0C0F0CD00A
:1042700050EA410618BF52EA4306D1D181EA030150
:1042800001F000414FF0000070BD50EA410606BF4A
:104290001046194652EA430619D094EA0C0F02D18F
:1042A00050EA013613D195EA0C0F05D152EA0336D4
:1042B0001CBF104619460AD181EA030101F00041F2
:1042C00041F0FE4141F470014FF0000070BD41F03B
:1042D000FE4141F4780170BD70B54FF0FF0C4CF415
:1042E000E06C1CEA11541DBF1CEA135594EA0C0F34
:1042F00095EA0C0F00F0A7F8A4EB050481EA030E81
:1043000052EA03354FEA013100F088804FEA033367
:104310004FF0805545EA131343EA12634FEA022235
:1043200045EA111545EA10654FEA00260EF00041F6
:104330009D4208BF964244F1FD0404F5407402D248
:104340005B084FEA3202B61A65EB03055B084FEAD9
:1043500032024FF480104FF4002CB6EB020E75EBD6
:10436000030E22BFB61A754640EA0C005B084FEAFE
:104370003202B6EB020E75EB030E22BFB61A75467B
:1043800040EA5C005B084FEA3202B6EB020E75EBC6
:10439000030E22BFB61A754640EA9C005B084FEA3E
:1043A0003202B6EB020E75EB030E22BFB61A75464B
:1043B00040EADC0055EA060E18D04FEA051545EA3A
:1043C00016754FEA06164FEAC30343EA52734FEAE3
:1043D000C2025FEA1C1CC0D111F4801F0BD141EA5C
:1043E00000014FF000004FF0004CB6E711F4801FC1
:1043F00004BF01430020B4F1FD0C88BFBCF5E06FA1
:104400003FF6AFAEB5EB030C04BFB6EB020C5FEAB0
:10441000500C50F1000041EB045170BD0EF0004E05
:104420004EEA113114EB5C04C2BFD4EB0C0541EA37
:10443000045170BD41F480114FF0000E013C90E634
:1044400045EA060E8DE60CEA135594EA0C0F08BFF8
:1044500095EA0C0F3FF43BAF94EA0C0F0AD150EAF7
:1044600001347FF434AF95EA0C0F7FF425AF10468A
:1044700019462CE795EA0C0F06D152EA03353FF4B2
:10448000FDAE1046194622E750EA410618BF52EA2F
:1044900043067FF4C5AE50EA41047FF40DAF52EA03
:1044A00043057FF4EBAE12E74FF0FF3C06E000BFA0
:1044B0004FF0010C02E000BF4FF0010C4DF804CDAD
:1044C0004FEA410C7FEA6C5C4FEA430C18BF7FEA6D
:1044D0006C5C1BD001B050EA410C0CBF52EA430C9B
:1044E00091EA030F02BF90EA020F0020704710F11B
:1044F000000F91EA030F58BF994208BF90422CBFAA
:10450000D8176FEAE37040F0010070474FEA410CA2
:104510007FEA6C5C02D150EA013C07D14FEA430CC0
:104520007FEA6C5CD6D152EA033CD3D05DF8040B31
:10453000704700BF8446104662468C461946634663
:1045400000E000BF01B5FFF7B7FF002848BF10F13A
:10455000000F01BD4DF808EDFFF7F4FF0CBF01207F
:1045600000205DF808FB00BF4DF808EDFFF7EAFFFB
:1045700034BF012000205DF808FB00BF4DF808EDB6
:10458000FFF7E0FF94BF012000205DF808FB00BFAB
:104590004DF808EDFFF7CEFF94BF012000205DF835
:1045A00008FB00BF4DF808EDFFF7C4FF34BF012042
:1045B00000205DF808FB00BF4FEA410212F500122F
:1045C00015D211D56FF47873B3EB625212D94FEA5A
:1045D000C12343F0004343EA505311F0004F23FA44
:1045E00002F018BF404270474FF00000704750EA99
:1045F000013005D111F0004008BF6FF00040704756
:104600004FF00000704700BF4FEA4102B2F1E043B3
:1046100024BFB3F5001CDCF1FE5C0DD901F0004CA9
:104620004FEAC0024CEA5070B2F1004F40EB8300F9
:1046300008BF20F00100704711F0804F21D113F125
:104640003872BCBF01F00040704741F480114FEA5E
:104650005252C2F11802C2F1200C10FA0CF320FAE7
:1046600002F018BF40F001004FEAC1234FEAD32304
:1046700003FA0CFC40EA0C0023FA02F34FEA43036E
:10468000CCE77FEA625307D150EA01331EBF4FF0F7
:10469000FE4040F44000704701F0004040F0FE4012
:1046A00040F40000704700BF80F0004002E000BF0F
:1046B00081F0004142001FBF5FEA410392EA030F0D
:1046C0007FEA226C7FEA236C6AD04FEA1262D2EB57
:1046D0001363C1BFD218414048404140B8BF5B425C
:1046E000192B88BF704710F0004F40F4000020F0F5
:1046F0007F4018BF404211F0004F41F4000121F00B
:104700007F4118BF494292EA030F3FD0A2F1010254
:1047100041FA03FC10EB0C00C3F1200301FA03F192
:1047200000F0004302D5494260EB4000B0F5000FB5
:1047300013D3B0F1807F06D340084FEA310102F174
:104740000102FE2A51D2B1F1004F40EBC25008BF26
:1047500020F0010040EA03007047490040EB0000F0
:1047600010F4000FA2F10102EDD1B0FA80FCACF11F
:10477000080CB2EB0C0200FA0CF0AABF00EBC2501E
:1047800052421843BCBFD0401843704792F0000F0C
:1047900081F4000106BF80F400000132013BB5E75F
:1047A0004FEA41037FEA226C18BF7FEA236C21D0D5
:1047B00092EA030F04D092F0000F08BF084670473A
:1047C00090EA010F1CBF0020704712F07F4F04D108
:1047D000400028BF40F00040704712F100723CBF1B
:1047E00000F50000704700F0004343F0FE4040F445
:1047F000000070477FEA226216BF08467FEA236303
:104800000146420206BF5FEA412390EA010F40F4ED
:10481000800070474FF0000304E000BF10F0004339
:1048200048BF40425FEA000C08BF704743F0964320
:1048300001464FF000001CE050EA010208BF70473B
:104840004FF000030AE000BF50EA010208BF7047C2
:1048500011F0004302D5404261EB41015FEA010CD7
:1048600002BF84460146002043F0B64308BFA3F1CF
:104870008053A3F50003BCFA8CF2083AA3EBC253B1
:1048800010DB01FA02FC634400FA02FCC2F12002D0
:10489000BCF1004F20FA02F243EB020008BF20F007
:1048A0000100704702F1200201FA02FCC2F120026D
:1048B00050EA4C0021FA02F243EB020008BF20EA62
:1048C000DC7070474FF0FF0C1CEAD0521EBF1CEA90
:1048D000D15392EA0C0F93EA0C0F6FD01A4480EA7E
:1048E000010C400218BF5FEA41211ED04FF0006367
:1048F00043EA501043EA5111A0FB01310CF0004093
:10490000B1F5000F3EBF490041EAD3715B0040EAB8
:10491000010062F17F02FD2A1DD8B3F1004F40EB88
:10492000C25008BF20F00100704790F0000F0CF05B
:10493000004C08BF49024CEA502040EA51207F3A1F
:10494000C2BFD2F1FF0340EAC250704740F40000FA
:104950004FF00003013A5DDC12F1190FDCBF00F0EB
:1049600000407047C2F10002410021FA02F1C2F199
:10497000200200FA02FC5FEA310040F1000053EA35
:104980004C0308BF20EADC70704792F0000F00F083
:10499000004C02BF400010F4000F013AF9D040EA89
:1049A0000C0093F0000F01F0004C02BF490011F41D
:1049B000000F013BF9D041EA0C018FE70CEAD1531B
:1049C00092EA0C0F18BF93EA0C0F0AD030F0004C9B
:1049D00018BF31F0004CD8D180EA010000F000404F
:1049E000704790F0000F17BF90F0004F084691F00D
:1049F000000F91F0004F14D092EA0C0F01D1420247
:104A00000FD193EA0C0F03D14B0218BF084608D10F
:104A100080EA010000F0004040F0FE4040F4000059
:104A2000704740F0FE4040F4400070474FF0FF0CEC
:104A30001CEAD0521EBF1CEAD15392EA0C0F93EA33
:104A40000C0F69D0A2EB030280EA010C49024FEA85
:104A5000402037D04FF0805343EA111143EA10133E
:104A60000CF000408B4238BF5B0042F17D024FF4F6
:104A7000000C8B4224BF5B1A40EA0C00B3EB510FD1
:104A800024BFA3EB510340EA5C00B3EB910F24BFBA
:104A9000A3EB910340EA9C00B3EBD10F24BFA3EB3F
:104AA000D10340EADC001B0118BF5FEA1C1CE0D107
:104AB000FD2A3FF650AF8B4240EBC25008BF20F0BA
:104AC000010070470CF0004C4CEA50207F32C2BF0E
:104AD000D2F1FF0340EAC250704740F400004FF0AB
:104AE0000003013A37E792F0000F00F0004C02BFDC
:104AF000400010F4000F013AF9D040EA0C0093F0A6
:104B0000000F01F0004C02BF490011F4000F013BFF
:104B1000F9D041EA0C0195E70CEAD15392EA0C0F67
:104B200008D142027FF47DAF93EA0C0F7FF470AF9F
:104B3000084676E793EA0C0F04D14B023FF44CAFE2
:104B400008466EE730F0004C18BF31F0004CCAD177
:104B500030F000427FF45CAF31F000437FF43CAFB3
:104B60005FE700BF4FF0FF3C06E000BF4FF0010CD5
:104B700002E000BF4FF0010C4DF804CD4FEA4002B7
:104B80004FEA41037FEA226C18BF7FEA236C11D001
:104B900001B052EA530C18BF90EA010F58BFB2EBB4
:104BA000030088BFC81738BF6FEAE17018BF40F034
:104BB000010070477FEA226C02D15FEA402C05D1E8
:104BC0007FEA236CE4D15FEA412CE1D05DF8040B6D
:104BD000704700BF844608466146FFE70FB5FFF700
:104BE000C9FF002848BF10F1000F0FBD4DF808EDB8
:104BF000FFF7F4FF0CBF012000205DF808FB00BFA9
:104C00004DF808EDFFF7EAFF34BF012000205DF802
:104C100008FB00BF4DF808EDFFF7E0FF94BF01204F
:104C200000205DF808FB00BF4DF808EDFFF7D2FF4C
:104C300094BF012000205DF808FB00BF4DF808ED8F
:104C4000FFF7C8FF34BF012000205DF808FB00BF5C
:104C500042000ED2B2F1FE4F0BD34FF09E03B3EBE6
:104C6000126209D44FEA002343F0004323FA02F012
:104C700070474FF00000704712F1610F01D14202FE
:104C800002D14FF0FF3070474FF00000704700BF77
:104C900073B96AB9002908BF0028BCBF00204FF0D3
:104CA0000041C4BF6FF000414FF0FF30FFF730B854
:104CB00082B0EC462DE9005000F01CF8DDF804E06D
:104CC00002B00CBC704700BF4BB942B9002908BF05
:104CD000002802D04FF0FF310846FFF719B882B024
:104CE000EC462DE9005000F01DF8DDF804E002B0BC
:104CF0000CBC70472DE970431646804689461D4618
:104D000000F028F800FB05F3A0FB064506FB013682
:104D1000069B7519B8EB040469EB0505C3E900456A
:104D2000BDE870832DE970431646804689461D46CE
:104D300000F0C2F900FB05F3A0FB064506FB0136B7
:104D4000069B7519B8EB040469EB0505C3E900453A
:104D5000BDE8708300292DE9F04F1C4685B0C0F2F4
:104D6000CB800026002CC0F2C2808C461746144629
:104D7000054688469A46002B49D18A426DD9B2FA37
:104D800082F353B1C3F1200001FA03F835FA00F2BF
:104D900017FA03F442EA08089D404FEA144A4046D5
:104DA00051461FFA84FBFEF71FFD51462F0C81462A
:104DB0004046FEF747FE0BFB09F347EA014843452F
:104DC00009D918EB040809F1FF3904D2434584BF1F
:104DD00009F1FF39A044C3EB080851464046ADB283
:104DE000FEF702FD514607464046FEF72BFE0BFB41
:104DF00007FB45EA0145AB4505D9013F2D1902D214
:104E0000AB4588BF013F47EA0949002403E08B42D4
:104E10000CD90024A1464A46234616B1524263EB00
:104E200043031046194605B0BDE8F08FB3FA83F48A
:104E3000002C40F0B4808B424FF001092CBF4FF0A2
:104E4000000C4FF0010C82428CBF67464CF001070A
:104E5000002FE0D13C46B946DDE722B901201146DA
:104E6000FEF7C2FC0446B4FA84F3002B4AD1C4EB2B
:104E70000808270C1FFA84FA01210291394640469E
:104E8000FEF7B2FC39464FEA154B81464046FEF725
:104E9000D9FD0AFB09F34BEA014B5B4509D91BEB32
:104EA000040B09F1FF3904D25B4584BF09F1FF39D6
:104EB000A344C3EB0B0B39465846ADB2FEF794FC46
:104EC000394680465846FEF7BDFD0AFB08FA45EA1A
:104ED0000145AA4507D92D1908F1FF3803D2AA4583
:104EE00088BF08F1FF3848EA0949029C93E7F64376
:104EF000524263EB430338E7404261EB41014FF01C
:104F0000FF362FE79C40C3F1200028FA00FA08FA88
:104F100003FB270C35FA00F23946504642EA0B02F1
:104F20009D400292FEF760FC394683465046FEF7EC
:104F300089FD029B1FFA84FA4FEA13490AFB0BF31F
:104F400049EA0148434505D918EB04080BF1FF3B3A
:104F5000C0F0AB80C3EB080839464046FEF744FC7E
:104F6000394681464046FEF76DFD029A0AFB09F379
:104F70001FFA82FC4CEA0148434509D918EB0408A2
:104F800009F1FF3904D2434584BF09F1FF39A04438
:104F900049EA0B4EC3EB0808CDF808E06EE7C4F110
:104FA000200003FA04FA32FA00F321FA00F843EA87
:104FB0000A0A35FA00F201FA04F940464FEA1A4BA0
:104FC00042EA09010391594617FA04F30293FEF7E6
:104FD0000BFC594681464046FEF734FD1FFA8AF322
:104FE000039803FB09F2070C47EA0148424504D93C
:104FF00018EB0A0809F1FF3951D3C2EB08085946EA
:1050000040460193FEF7F0FB594607464046FEF73F
:1050100019FD0198039A00FB07F31FFA82FC4CEA82
:10502000014C634507D9013F1CEB0A0C03D26345D1
:1050300001D9013FD44447EA0949029FC3EB0C035D
:105040001FFA89FE4FEA1940B9B23F0C01FB0EF876
:1050500001FB00F107FB0E1207FB00FC02EB1842FC
:10506000914288BF0CF5803C0CEB124E734512D375
:105070004FEA02421FFA88F814BF0023012302EB13
:10508000080C15FA04F464452CBF002403F0010455
:10509000002C3FF4C0AE09F1FF390024BBE64245C5
:1050A00084BF09F1FF39D044A7E7434584BF0BF122
:1050B000FF3BA0444EE700BF2DE9F04F054683B00B
:1050C0000C46174680460E46002B4FD18A4263D9C4
:1050D000B2FA82F353B1C3F1200011FA03F635FAA4
:1050E00000F29F4042EA060605FA03F83C0C3046FF
:1050F00021461FFA87FAFEF777FB21464FEA18454B
:1051000081463046FEF79EFC0AFB09F345EA01465C
:10511000B34208D9F61909F1FF3904D2B34284BF6A
:1051200009F1FF39F619F61A214630461FFA88F8B8
:10513000FEF75AFB214605463046FEF783FC0AFB84
:1051400005FA48EA0148C24506D9013D18EB0708AF
:1051500002D2C24588BF013D45EA094A00263146D0
:10516000D046B146504603B0BDE8F08F8B425BD8C5
:10517000B3FA83F6002E5AD18B424FF0010A2CBFAE
:105180000024012482428CBF254644F00105002DF5
:10519000E5D12E46AA46E2E722B901201146FEF7E4
:1051A00023FB0746B7FA87F3002B40F0BB80E41BD4
:1051B0004FEA174BBDB2012659462046FEF714FBB5
:1051C000594682462046FEF73DFC4FEA184C05FB47
:1051D0000AF34CEA0144A34208D9E4190AF1FF3A60
:1051E00004D2A34284BF0AF1FF3AE419E41A5946F3
:1051F0002046FEF7F9FA594681462046FEF722FC82
:105200001FFA88F305FB09F543EA0148454508D92B
:1052100018EB070809F1FF3903D2454588BF09F1AA
:10522000FF3949EA0A4A9AE70026B24697E7C6F1EB
:10523000200013FA06F132FA00F735FA00F30F43B3
:1052400024FA00FBB44058464FEA174843EA0401E9
:105250000191414612FA06F40094FEF7C5FA414660
:10526000BCB282465846FEF7EDFB019A04FB0AF3F6
:105270004FEA124B4BEA014B5B4505D91BEB070B81
:105280000AF1FF3AC0F09680C3EB0B0B414658463B
:10529000FEF7AAFA414681465846FEF7D3FB019A2B
:1052A00004FB09F41FFA82F848EA01439C4203D93F
:1052B000DB1909F1FF3977D3009F49EA0A4A1C1B21
:1052C0001FFA8AF11FFA87F83A0C4FEA1A4708FBCF
:1052D00001FC08FB07F302FB013002FB07F900EBBE
:1052E0001C418B4288BF09F5803909EB114E74458A
:1052F00014D34FEA01491FFA8CF314BF4FF0000E8C
:105300004FF0010E09EB030C15FA06F666452CBFAB
:1053100000260EF00106002E3FF421AF0AF1FF3AFD
:1053200000261CE79F40C3F1200924FA09F614FA6D
:1053300003F24FEA174B25FA09FA5946304605FAA7
:1053400003F84AEA020AFEF74FFA5946BDB24FEA9D
:105350001A4481463046FEF775FB05FB09F344EA23
:105360000144A34203D9E41909F1FF3928D3E41A0F
:1053700059462046FEF738FA594606462046FEF7BB
:1053800061FB1FFA8AF005FB06F340EA0144A342E1
:1053900006D9013EE41903D2A34201D9013EE41922
:1053A000E41A46EA094607E79C4284BF09F1FF393F
:1053B000DB1981E75B4584BF0AF1FF3ABB4463E731
:1053C000A34284BF09F1FF39E419D0E7684620F011
:1053D00007018D462DE9F14FADF5287D12AF44F25E
:1053E000F473C0F60103C7F8503240F20003C2F272
:1053F0000003C7F84C3211E0D7F850321A68D7F8DA
:105400004C321A60D7F84C3203F10403C7F84C321F
:10541000D7F8503203F10403C7F85032D7F84C22C2
:1054200040F2A463C2F200039A42E5D340F2A863BB
:10543000C2F20003C7F84C320AE0D7F84C324FF002
:1054400000021A60D7F84C3203F10403C7F84C325B
:10545000D7F84C2241F68C43C2F200039A42ECD3B7
:1054600040F2A863C2F200034FF000021A7040F24B
:10547000AC63C2F200034FF000021A6040F2B06366
:10548000C2F200034FF000021A7040F2B463C2F29D
:1054900000034FF000021A6040F2B863C2F200034A
:1054A0004FF000021A6040F2BC63C2F200034FF0FA
:1054B00000021A7040F2BD63C2F200034FF0000216
:1054C0001A7040F2C063C2F200034FF0FF021A608C
:1054D00040F2C463C2F200034FF0FF021A7040F2C0
:1054E000C563C2F200034FF000021A704FF00003D0
:1054F000C7F8543219E040F69853C2F20003D7F8C7
:1055000054229B184FF07F021A7040F6A463C2F237
:105510000003D7F854229B184FF07F021A70D7F877
:10552000543203F10103C7F85432D7F854320B2B2D
:10553000E1DD40F69853C2F200034FF00002DA7149
:1055400040F69853C2F200034FF000021A7240F680
:10555000A463C2F200034FF00002DA7140F6A463C4
:10556000C2F200034FF000021A7204F011F800F0CA
:1055700069FD02F09DFB40F2A863C2F200034FF008
:1055800001021A7001F05CFB0346002B00F09E82C2
:105590004FF0C80001F06AFD08F0C0FB4FF020009A
:1055A00001F028FA0346002B6BD040F2B063C2F240
:1055B00000031B78002B64D140F69853C2F200031D
:1055C0001B784FF00100194604F066FF40F698532F
:1055D000C2F200035B784FF00200194604F05CFF52
:1055E00040F69853C2F200039B784FF0030019462F
:1055F00004F052FF40F69853C2F20003DB784FF0FC
:105600000400194604F048FF40F69853C2F2000324
:105610001B794FF00500194604F03EFF40F6A463E5
:10562000C2F200031B784FF00600194604F034FF65
:1056300040F6A463C2F200035B784FF007001946FE
:1056400004F02AFF40F6A463C2F200039B784FF0F7
:105650000800194604F020FF40F6A463C2F20003DC
:10566000DB784FF00900194604F016FF40F6A463FA
:10567000C2F200031B794FF00A00194604F00CFF38
:105680009AE74FF00A0001F0F1FC40F2C563C2F264
:1056900000031B78002B0CD04FF47A7001F0E6FC6D
:1056A00040F2C563C2F200034FF000021A7008F026
:1056B00035FB4FF0320001F0D9FC4FF00003C7F882
:1056C000483207F13C0243F6F403C0F601031B889D
:1056D000138002F102024FF4FF7310464FF00001F5
:1056E0001A46FBF7DFF84FF00003C7F8483236E000
:1056F000D7F84832DBB203F10103DBB2184603F0FE
:10570000B1FF0346002B13D1D7F84832DBB203F1C7
:105710000103DBB2184604F09DF9034603F10303CD
:10572000DAB207F50F71D7F84832CB181A7010E0CB
:10573000D7F84832DBB203F10103DBB2184604F0BC
:10574000DBF803461A4607F50F71D7F84832CB1835
:105750001A70D7F8483203F10103C7F84832D7F876
:1057600048320B2BC4DD97F83C321E4697F83D3289
:105770001D4697F83E32184697F83F321C4697F878
:1057800040327B6397F841323B6397F84232FB62C9
:1057900097F843329B4697F844329A4697F8453239
:1057A000994697F84632984697F847329C4640F219
:1057B000DC73C2F200031B681B799E4640F2DC7367
:1057C000C2F200031B685B79194640F2B063C2F273
:1057D00000031B781A4607F13C0300900194786B94
:1057E0000290386B0390F86A0490CDF814B0CDF8AD
:1057F00018A0CDF81C90CDF82080CDF824C0CDF8AD
:1058000028E00B910C92184643F65401C0F60101B2
:1058100032462B460CF0C4FB4FF00003C7F8483269
:1058200007F13C02D7F84832D3181B78002B49D136
:105830004FF00D0006F02AFC4FF0320001F016FC8C
:105840004FF0010004F08AF805464FF0020004F022
:1058500085F804464FF0030004F080F883464FF0CB
:10586000040004F07BF882464FF0050004F076F85F
:1058700081464FF0060004F071F880464FF00700B3
:1058800004F06CF806464FF0080004F067F8024692
:1058900007F13C03CDF800B0CDF804A0CDF8089096
:1058A000CDF80C8004960592184643F68801C0F6A0
:1058B00001012A4623460CF073FB4FF00003C7F8A2
:1058C000483210E007F13C02D7F84832D3181B7871
:1058D0005BB2D7F8482202F10102C7F84822184605
:1058E00006F0D4FB9CE707F13C02D7F84832D31806
:1058F0001B78002B40F0BB804FF00D0006F0C6FB7C
:105900004FF0320001F0B2FB41F27433C2F20003F7
:105910001B68BB6241F27433C2F200039B687B6276
:1059200041F27433C2F200031B699E4641F27433A4
:10593000C2F200039B699C4641F27433C2F2000339
:105940001B6A984641F27433C2F200039B6A9A467E
:1059500041F27433C2F200031B6B9B4641F2743375
:10596000C2F200039B6B3B6241F27433C2F200034C
:105970001B6CFB6141F27433C2F200039B6CBB6190
:1059800041F27433C2F200039B889BB27B6141F207
:105990007433C2F200039B899BB23B6141F27433C2
:1059A000C2F200039B8A9BB2FB6041F27433C2F2E5
:1059B00000039B8B9BB2994641F27433C2F2000301
:1059C0009B8C9BB21E4641F27433C2F200039B8D46
:1059D0009BB21D4641F27433C2F200039B8E9BB210
:1059E0001C4641F27433C2F200039B8F9BB21846EF
:1059F00041F27433C2F20003B3F844309BB219464B
:105A000041F27433C2F20003B3F84C309BB21A4631
:105A100007F13C037B60CDF800E0CDF804C0CDF881
:105A20000880CDF80CA0CDF810B03B6A0593FB6957
:105A30000693BB6907937B6908933B690993FB68ED
:105A40000A93CDF82C900C960D950E940F90109112
:105A50001192786843F6A801C0F60101BA6A7B6A20
:105A60000CF09EFA4FF00003C7F8483210E007F13F
:105A70003C02D7F84832D3181B785BB2D7F84822DB
:105A800002F10102C7F84822184606F0FFFA2AE799
:105A900007F13C02D7F84832D3181B78002B04D109
:105AA0004FF00D0006F0F2FAEBE507F13C02D7F8F3
:105AB0004832D3181B785BB2D7F8482202F10102B2
:105AC000C7F84822184606F0E1FAE1E740F2AC6375
:105AD000C2F200031B68002B1ED140F2B463C2F275
